:020000040800F2
:1000000020AD002099100008C9050008CB050008A4
:10001000CF050008D3050008D70500080000000040
:10002000000000000000000000000000DB050008E8
:10003000DD05000800000000DF050008E1050008FC
:10004000B3100008B3100008B3100008B310000884
:10005000B3100008B3100008B3100008B310000874
:10006000B3100008B3100008B3100008B310000864
:10007000B3100008B3100008B3100008B310000854
:10008000B3100008B3100008B3100008B310000844
:10009000B3100008B3100008B3100008B310000834
:1000A000B3100008B3100008B3100008B310000824
:1000B000B3100008B3100008B3100008B310000814
:1000C000B3100008B3100008B3100008B310000804
:1000D000B31000080B100008B3100008B31000089C
:1000E000B3100008B3100008B3100008B3100008E4
:1000F000B3100008B3100008B3100008B3100008D4
:10010000B3100008B3100008B3100008B3100008C3
:10011000B3100008B3100008AD070008B3100008C2
:10012000B3100008B3100008B3100008B3100008A3
:1001300000F002F800F044F80AA090E8000C8244B5
:100140008344AAF10107DA4501D100F039F8AFF292
:10015000090EBAE80F0013F0010F18BFFB1A43F0A5
:10016000010318476C5300008C530000103A24BF61
:1001700078C878C1FAD8520724BF30C830C144BF0C
:1001800004680C607047000000230024002500264E
:10019000103A28BF78C1FBD8520728BF30C148BFEA
:1001A0000B607047642904F01787732905F0AB8052
:1001B000002070471FB505F079F91FBD10B510BDBF
:1001C00005F03FF91146FFF7F5FF00F060F805F084
:1001D0005DF903B4FFF7F2FF03BC00F0BDFE0000C1
:1001E00030BF72B662B680F30888704708B500F079
:1001F0004BFE00F0ABFE4FF4165000F0BAFE05E0E7
:100200002CA004F06BFEC82000F075FE04F06EFC1C
:100210000028F5D103F06EF900BF4AF6C000ADF832
:1002200000004FF48050ADF8020000BF00BFBDF8E1
:10023000000026490880BDF80200488000BF00BFCA
:100240004AF6C000ADF800004FF48070ADF802002F
:1002500000BF00BFBDF800001D490880BDF80200C6
:10026000488000BF00BF4FF6FF70ADF80000FF20D0
:10027000ADF8020000BF00BFBDF8000015490880BE
:10028000BDF80200488000BF04F08EFC08BDFFF7F7
:10029000ADFF11A004F022FE0AE000F082F800F0A9
:1002A00023F800F0E6F80F48007808B100F00DF9E7
:1002B000F3E70000454E4332384A363020496E6934
:1002C00074204572726F72210000000062000020ED
:1002D000660000206A000020696E6974206F6B61FF
:1002E000790000000000002010B58248007850B16D
:1002F0008148007838B100207E4908707E49087036
:1003000001207E4908707E4800787E49097888423D
:1003100030D07C48007810F0400F27D07A497BA07D
:1003200004F024FF28B901207249087079A004F074
:10033000D5FD75497AA004F019FF48B901206E492E
:100340000870714978A004F0C9FD7BA004F0C6FDD7
:100350006D497BA004F00AFF10B901207A490870AA
:100360006848007820F040006649087065480078C9
:100370006349087010BD10B504466248007810F05B
:10038000800F0DD02146604804F0B4FD5E496FA097
:1003900004F0A4FD5B48007840F020005949087043
:1003A00010BD10B56F48007858B901206D4908702C
:1003B00032216D4802F0D4FF4FF47A716B4802F09D
:1003C000CFFF04F0AAFB6A4908800846008800288D
:1003D00024DD4FF4006003F03EF8664989898842C5
:1003E0000BD1012003F088F96148008800283FDD27
:1003F00004F0A1FA04F099FB3AE040F6060003F09D
:100400002AF85C498989884232D104F028FA584890
:10041000008800282CDD04F088FB29E0524802F017
:10042000B2FF28B3504802F0A3FF002415E000BF3C
:1004300004EB8400504901EBC000504908600220E1
:1004400003F05AF900BF4A480088002803DD04F091
:1004500072FA04F06AFB601CC4B2282CE7DB434844
:1004600002F091FF20B1414802F082FF04F049F907
:1004700010BD10B52148007830B34148406800F005
:100480007F40B0F1006F19D13E480088401F3D49C0
:100490000880084601883CA004F020FD3948028805
:1004A0003D493E4804F0CCFC3B480021017000204F
:1004B00034490880642000F01EFD02E038A004F0FA
:1004C0000DFD00200D49087010BD10B50021102051
:1004D00001F09EF93148406800F07F40B0F1006FB4
:1004E00003D12E4804F0DDFC02E030A004F0F6FC5D
:1004F00010BD0000070000200400002006000020BE
:10050000050000209E000020CC0900207265616477
:1005100079000000707265706172696E670000009A
:100520006F7665720000000066696E616C20646120
:1005300074613A25730000005550646174650000D1
:1005400072756E5F6E6F7700000000207463705FDD
:10055000636C69656E745F646174616275663A2587
:100560007300000018000020080000201000002088
:1005700078000020008800200498002080000020DF
:10058000001000209C000020746F74616C206E7558
:100590006D3A25640D0A00000010002000000108DB
:1005A0006E6F74206F6B61790D0A00006E6F74209E
:1005B000666C61736820617070202C63616E2774B3
:1005C0002072756E0D0A0000704700BFFEE700BF85
:1005D000FEE700BFFEE700BFFEE7704770477047C9
:1005E0007047000000210020674A126842F4803200
:1005F000654B1A6000BF644A126802F40030491C5F
:1006000010B9B1F5A06FF6D15F4A126812F4003F3D
:1006100001D0012000E00020012842D15B4A12688D
:1006200042F01002594B1A601A46126822F0030277
:100630001A601A46126842F002021A60524A526860
:10064000514B5A601A4652685A601A46526842F430
:1006500080625A601A46526822F47C125A601A4626
:10066000526842F4E8125A601A46126842F08072E8
:100670001A6000BF444A126812F0007FFAD0424A62
:10068000526822F00302404B5A601A46526842F008
:1006900002025A6000BF3C4A526802F00C02082A6B
:1006A000F9D1704710B5FFF79DFF10BD10B5364862
:1006B000006840F001003449086008464068344949
:1006C00008403149486008460068324908402E49D0
:1006D00008600846006820F48020086008464068EA
:1006E00020F4FE0048604FF41F008860FFF7DAFF37
:1006F0004FF000602849086010BD10B500210020AF
:100700000022214B5B6803F00C0121B1042906D0C3
:10071000082928D107E0214B214C236027E01F4BFB
:100720001F4C236023E0184B5B6803F47010164BDA
:100730005B6803F48032022303EB904022B9194B2B
:100740004343174C23600DE00F4B5B6813F4003FED
:1007500004D0144B4343124C236003E00F4B43433C
:100760000F4C236003E00D4B0D4C236000BF00BF16
:10077000054B5B68C3F303130B4CE15C084B1B6830
:10078000CB40074C236010BD001002400020024007
:100790000000FFF8FFFFF6FE08ED00E000127A000F
:1007A0001C00002000093D002000002010B50121A0
:1007B0001D4802F054F920B11C480068401C1B4938
:1007C00008600121184802F05BF910BD7FB50546AD
:1007D0000C460121102001F01BF8ADF80850ADF8CF
:1007E00004400020ADF80A00ADF8060001A90E484B
:1007F00001F046FB012241210B4801F096FE012148
:10080000094801F06CFE36208DF8000001208DF8BB
:10081000010002208DF8020001208DF803006846D7
:1008200000F05FFC7FBD00000010004030000020A1
:100830000146088870472DE9F04105460E461746E7
:10084000002407E036F81410284602F00BFCAD1C1B
:10085000601C84B2BC42F5DBBDE8F08130B50346D4
:100860000C461546002207E01846FFF7E1FF24F882
:1008700012009B1C501C82B2AA42F5DB30BD2DE950
:10088000F05F80468A461746B8F1006F02D33748BA
:10089000804501D3BDE8F09F02F09DFAA8F1006BFE
:1008A0004FEADB25CBF34909C9F58064A74200DC98
:1008B0003C464DE04FF0006101EBC5204A142C4945
:1008C000FFF7CCFF00260BE009EB0600284931F8C2
:1008D0001000A0F57F41FF3900D003E0701C86B204
:1008E000A642F1DB00BFA6421BDA4FF0006101EB2C
:1008F000C52002F0B6FA002608E03AF8160006EB2A
:1009000009011B4A22F81100701C86B2A642F4DBD2
:100910004FF0006101EBC5204A141549FFF78BFF2A
:1009200004E0224651464046FFF785FFA74200D12A
:100930000FE06D1C4FF000090AEB440AA044381B7D
:1009400087B2B7F5806F02DD4FF4806400E03C466B
:10095000B0E700BF02F04BFA00BF9BE713B50446B7
:10096000012201A92046FFF78AFF1CBD00000808EC
:10097000A400002000B587B00121182000F03BFF43
:100980000121880300F044FF4FF46040ADF81800E7
:1009900001208DF81A0018208DF81B0006A92C489C
:1009A00000F076FC4FF48050ADF8180001208DF86F
:1009B0001A0010208DF81B0006A9254800F068FCDD
:1009C0004FF48051224800F00EFD4FF4C06000F05B
:1009D00083FB0020ADF804004FF48270ADF80600F0
:1009E0000020ADF80800ADF80A00ADF80C004FF497
:1009F0000070ADF80E001020ADF810000020ADF82A
:100A000012000720ADF8140001A9124802F062F8A4
:100A10000121104802F001F907B000BD10B50446ED
:100A200000BF02210B4802F081F90028F9D02146CD
:100A3000084802F028F900BF0121064802F076F9C3
:100A40000028F9D0034802F020F9C0B210BD000020
:100A5000000C01400038004010B5FFF78BFF10BDBF
:100A600010B5FFF7F9FF40F2CF214FF47A70FFF78E
:100A7000ADFE10BD70B505460C4600260020FE49AF
:100A8000086004F01F0040EA05063046FFF7C6FF85
:100A9000FF20FFF7C3FF064614F0800F03D0FF20AE
:100AA000FFF7BCFF06460120F3490860304670BDE1
:100AB0002DE9F04104460D46164600270020EE4978
:100AC000086005F01F0040EA04073846FFF7A6FF5C
:100AD0003046FFF7A3FF0120E849C1F8B001BDE8A7
:100AE000F08170B505460C460020E34908604FF0E0
:100AF0003A00FFF793FF05E06D1E0020FFF78EFF21
:100B00002070641C002DF7D1002020700120DA49EC
:100B1000086070BD70B504460D460020D6490860D7
:100B20004FF07A00FFF77AFF04E0641E2878FFF7A1
:100B300075FF6D1C002CF8D10120CF49086070BDF5
:100B400010B5044604F06000CD49097888420ED003
:100B500003221F21A020FFF7ABFFC4F341121F2186
:100B60008020FFF7A5FF04F06000C549087010BDA4
:100B700010B504462046FFF7E3FF21460020FFF7AB
:100B800079FF10BD70B504460D462046FFF7D8FF2B
:100B90002A4621464020FFF78BFF70BD70B5054601
:100BA0000C4600262946D420FFF7ECFFE1B2D62000
:100BB000FFF7E8FFC4F30721D720FFF7E3FF01E0C9
:100BC000701C86B2EA20FFF7D3FF10F0010F03D0AC
:100BD00040F6FF708642F3DB70BD70B50446002519
:100BE000FFF73EFFFF2200211046FFF761FF04E000
:100BF000681C85B2012000F07EF91D20FFF7B8FFC8
:100C000010F0010F02D1B5F5FA7FF1DBB5F5FA7FEF
:100C100001DB012070BD00209A49086000210820F6
:100C2000FFF7B0FF00210920FFF7ACFF00210C20E7
:100C3000FFF7A8FF00210D20FFF7A4FF10210A20D5
:100C4000FFF7A0FF1A210B20FFF79CFF11210420C2
:100C5000FFF798FF1A210520FFF794FFFF210620D8
:100C6000FFF790FF1F210720FFF78CFFB0213820EE
:100C7000FFF788FF3F212820FFF784FF302129203C
:100C8000FFF780FFF9213020FFF77CFFF7213120AB
:100C9000FFF778FF0D21C020FFF774FF0021C1206E
:100CA000FFF770FF3322C2218020FFF701FF1221DE
:100CB000C620FFF767FF0C21C720FFF763FF152150
:100CC000C420FFF75FFFEE21CA20FFF75BFF05217D
:100CD000CB20FFF757FF2178E420FFF753FF61781F
:100CE000E520FFF74FFFA178E220FFF74BFFE17807
:100CF000E320FFF747FF2179E020FFF743FF617909
:100D0000E120FFF73FFF4FF480710020FFF746FF1F
:100D10004FF480711020FFF741FF1F20FFF710FFF5
:100D2000C0221B218020FFF7C3FE04221F21802048
:100D3000FFF7BEFEE420FFF71BFF2178884201D1B8
:100D4000002067E7012065E710B57220FFF710FF6C
:100D500010BD70B504460D4611210220FFF712FFA9
:100D60001A210320FFF70EFF11202044C1B20620F4
:100D7000FFF708FF41F611202044C0F307210720A8
:100D8000FFF700FF002211467A20FFF791FE294667
:100D90002046FFF7BFFE08221F218020FFF788FEB4
:100DA0001C20FFF7E5FE10F0020F04D008221F21DF
:100DB000A020FFF77DFE70BD2DE9F04105460F46EE
:100DC0003920FFF7D5FE10B90020BDE8F0812D488D
:100DD0000068C1B20020FFF7D5FE2A480068C0F3C2
:100DE00007210120FFF7CEFE00213A20FFF742FE47
:100DF0002449086000213A20FFF73CFE2149096898
:100E000041EA00201F49086000213A20FFF732FE26
:100E1000044600213A20FFF72DFE44EA0024241F57
:100E200000213A20FFF726FE064600213A20FFF770
:100E300021FE46EA0026681EA04200D26C1E16F073
:100E4000800F01D1002403E039462046FFF749FE18
:100E50000C480068C1B20C20FFF794FE09480068F6
:100E6000C0F307210D20FFF78DFE40221E218020B8
:100E7000FFF71EFE2046A8E7B081214200802142F4
:100E8000340000203800002010B56FF0040000F09E
:100E90007CF92A4800682A49B0FBF1F0294908701A
:100EA000084600784FF47A7148432749088010BDFE
:100EB0000146244A12784A434FF0E0235A61002247
:100EC0009A611A46126942F001021A6100BF4FF09E
:100ED000E022106910F0010F02D010F4803FF6D02C
:100EE0004FF0E022126922F001024FF0E0231A6174
:100EF00000229A6170470146134A12884A434FF014
:100F0000E0235A6100229A611A46126942F00102F6
:100F10001A6100BF4FF0E022106910F0010F02D0FB
:100F200010F4803FF6D04FF0E022126922F0010267
:100F30004FF0E0231A6100229A6170471C000020E4
:100F400000127A003C0000203E00002010B54FF453
:100F5000A06000F0C1F810BD014600BF704700BF9F
:100F6000484A128812F0400FFAD0C2B2464B1A809B
:100F7000704710B586B00446012144F2050000F028
:100F80003AFC4FF40070ADF8140003208DF8160001
:100F900018208DF8170005A93C4800F079F94FF4A6
:100FA0008060ADF8140004208DF8170005A93748BB
:100FB00000F06EF925208DF8000003208DF8010067
:100FC0008DF8020001208DF80300684600F089F8D2
:100FD00001940020ADF80800ADF80A00ADF80C004F
:100FE000ADF810000C20ADF80E0001A9254800F066
:100FF000B0FC012240F22551224800F042FD0121BF
:10100000204800F032FD06B010BD10B540F2255169
:101010001C4800F01EFE10B31A4800F09AFDC4B23E
:101020001B48008810F4004F2BD11948008810F499
:10103000804F0CD00A2C03D000201549088020E0F6
:101040001348008840F400401149088019E00D2C35
:1010500006D10F48008840F480400D49088010E018
:101060000B480088C0F30D000A490C54084800885A
:10107000401C0749088008460088C72801DD002079
:10108000088010BD003801400438014000080140CC
:1010900040000020A4080020094880470948004774
:1010A000FEE7FEE7FEE7FEE7FEE7FEE7FEE7FEE718
:1010B000FEE7FEE704480549054A064B7047000075
:1010C000AD0600083101000820A7002020AD002057
:1010D00020A9002020A9002036490143364A11608A
:1010E000704770B5002100230F22C4784CB3324CF6
:1010F000246804F4E064C4F5E0644FEA1421C1F10B
:10110000040322FA01F2447804FA03F1847804EA31
:10111000020444EA01014FEA0111284C0678A15566
:10112000047804F01F054FF0010404FA05F4057873
:101130004FEA65154FF0E02606EB8505C5F800413E
:1011400009E0047804F01F050124AC401C4D06782A
:10115000761145F8264070BD1A4A0A4002431A4BE0
:101160001A60704741B1194A126842EA00024FF012
:10117000E023C3F8102D07E0144A126822EA0002A7
:101180004FF0E023C3F8102D7047042808D14FF02A
:10119000E021096941F004014FF0E022116107E00C
:1011A0004FF0E021096921F004014FF0E0221161C4
:1011B000704700000000FA050CED00E000E400E0DC
:1011C00080E100E080FFFF1F08ED00E010ED00E08F
:1011D00010B50446CA48844208D10121042000F019
:1011E00024FB0021042000F020FB46E0C548844297
:1011F00008D10121082000F018FB0021082000F090
:1012000014FB3AE0C048844208D10121102000F0CC
:101210000CFB0021102000F008FB2EE0BB488442AC
:1012200008D10121202000F000FB0021202000F047
:10123000FCFA22E0B648844208D10121402000F0A7
:10124000F4FA0021402000F0F0FA16E0B1488442A0
:1012500008D10121802000F0E8FA0021802000F070
:10126000E4FA0AE0AC48844207D10121801500F07D
:10127000DCFA0021A01500F0D8FA10BD10B501214C
:10128000084600F0D2FA0021012000F0CEFA10BD8D
:101290002DE9F0410246002500260020002300240D
:1012A000002791F803C00CF00F0591F803C01CF063
:1012B000100F03D091F802C04CEA0505B1F800C048
:1012C0001CF0FF0F31D0146800202BE04FF0010C10
:1012D0000CFA00F3B1F800C00CEA03069E4220D1DC
:1012E00083004FF00F0C0CFA03F7BC4305FA03FC24
:1012F0004CEA040491F803C0BCF1280F06D14FF06A
:10130000010C0CFA00FCC2F814C00AE091F803C00A
:10131000BCF1480F05D14FF0010C0CFA00FCC2F8EB
:1013200010C0401C0828D1D31460B1F800C0BCF133
:10133000FF0F34DD546800202EE000F1080C4FF060
:10134000010808FA0CF3B1F800C00CEA03069E424B
:1013500021D183004FF00F0C0CFA03F7BC4305FAC0
:1013600003FC4CEA040491F803C0BCF1280F05D13A
:1013700000F1080C08FA0CF8C2F8148091F803C0C8
:10138000BCF1480F07D100F1080C4FF0010808FA32
:101390000CF8C2F81080401C0828CED35460BDE879
:1013A000F0814FF6FF710180022181700421C1702C
:1013B00070470246002093680B4201D0012000E0F4
:1013C000002070470146886880B2704702460020BE
:1013D000D3680B4201D0012000E000207047014695
:1013E000C86880B2704701617047416170470AB1B7
:1013F000016100E041617047C16070474FF4803285
:101400000A43826181618261826982697047024612
:101410000020424B18684FF68073184040EA0210D3
:1014200008433E4B186070473D49C8617047F0B5AE
:101430000A46002300240021002500F00046B6F1F2
:10144000004F02D1354EF16901E0344E7168C0F3AE
:10145000034583B200F44016B6F5401F08D121F0D1
:1014600070612E4E766826F070662C4F7E6012E01A
:1014700000F48016B6F5801F06D1032606FA05F49F
:10148000A14341F0706106E0460D360103FA06F60D
:10149000B14341F0706122B1460D360103FA06F600
:1014A000314300F00046B6F1004F02D11B4EF1610E
:1014B00001E01A4E7160F0BD30B500228B071C0FA1
:1014C0000F2303FA04F2154B08338C1053F8243021
:1014D0009343124C08348D1044F8253023468C1069
:1014E00053F824308C07240F00FA04F423430B4CE8
:1014F00008348D1044F8253030BD0A490860704723
:1015000000080140000C014000100140001401409F
:1015100000180140001C0140002001400000014073
:1015200000002042DC002042DB48006840F001005F
:10153000D949086008464068D8490840D6494860FB
:1015400008460068D6490840D34908600846006844
:1015500020F4802008600846406820F4FE004860BF
:101560004FF41F0088607047CB49096821F480312F
:10157000C94A11601146096821F480211160B0F553
:10158000803F03D0B0F5802F0ED106E0C249096834
:1015900041F48031C04A116007E0BF49096841F455
:1015A000A021BD4A116000E000BF00BF704710B528
:1015B00001460022002300204A11012A02D1B64C24
:1015C000236806E0022A02D1B34C236A01E0B24C40
:1015D000636A01F01F02012494401C4201D00120E3
:1015E00000E0002010BD70B500240025002600BFDB
:1015F0003120FFF7DCFF0646641CB4F5A06F01D074
:10160000002EF5D03120FFF7D2FF08B1012500E010
:101610000025284670BD014600209F4A106820F032
:10162000F80040EAC100106070479E4908607047AA
:1016300002460020984B586820F47C1042EA0103CF
:101640001843954B586070479649086670470146A5
:101650000020914A506820F0030008435060704712
:101660008D48406800F00C007047014600208A4A0F
:10167000506820F0F0000843506070470146002099
:10168000854A506820F4E060084350607047014686
:101690000020814A506820F4605040EAC100506048
:1016A000704729B17C4A527A02437B4B5A7206E05A
:1016B000794A527AC343DBB21A40774B5A72704769
:1016C00079490860704701460020734A506820F449
:1016D00040400843506070470021744A11706E4AC0
:1016E00082F82010012802D0042808D103E001214B
:1016F0006E4A117004E005216C4A117000E000BFD1
:1017000000BF70476A49086070476349096A01432E
:10171000614A1162704767490860704730B500211F
:101720000022002400235C4D6D6805F00C0121B1FE
:10173000042905D0082923D105E05F4D056022E08A
:101740005D4D05601FE0544D6D6805F47012524DFB
:101750006D6805F48034022505EB92421CB9574DA3
:10176000554305600BE04C4D6D6815F4003F03D008
:10177000524D5543056002E04F4D5543056002E070
:101780004D4D056000BF00BF434D6D6805F0F00191
:1017900009094B4D6B5C0568DD4045603E4D6D6849
:1017A00005F4E061090A464D6B5C4568DD408560E3
:1017B000394D6D6805F46051C90A414D6B5C45684F
:1017C000DD40C560344D6D6805F44041890B3D4DE9
:1017D0006B5CC568B5FBF3F5056130BD29B12E4AD8
:1017E000526902432C4B5A6104E02B4A52698243EE
:1017F000294B5A61704729B1274A92690243264B07
:101800009A6104E0244A92698243234B9A617047AB
:1018100029B1214AD26902431F4BDA6104E01E4A12
:10182000D26982431C4BDA61704729B11A4AD268E7
:101830000243194BDA6004E0174AD2688243164B20
:10184000DA60704729B1144A12690243124B1A61D7
:1018500004E0114A126982430F4B1A6170471A491A
:10186000086070470F49C86470470B49C8717047DA
:101870000948406A40F08070074948627047014655
:101880000020054A92680A4201D0012000E00020B1
:101890007047014988727047001002400000FFF84D
:1018A000FFFFF6FE00004242D800424220100240F4
:1018B000800442423C04424200127A0000093D008A
:1018C00048000020580000204004424210B5044661
:1018D000FC48844209D101218803FFF7A6FF0021BB
:1018E0004FF48040FFF7A1FF32E0F748844209D16E
:1018F00001214804FFF7A6FF00214FF40030FFF755
:10190000A1FF25E0F148844209D101218804FFF7B5
:1019100099FF00214FF48020FFF794FF18E0EC4876
:10192000844209D10121C804FFF78CFF00214FF444
:101930000020FFF787FF0BE0E648844208D1012131
:101940000805FFF77FFF00214FF48010FFF77AFFB3
:1019500010BD2DE9F04786B005460E460024A2468C
:1019600000BFA1460027B08900B100BF2F462C8AD6
:101970004CF6FF700440F08804432C82AC894EF68C
:10198000F3100440B0883189084371890843044347
:10199000AC81AC8A4FF6FF400440B0890443AC826E
:1019A00001A8FFF7BBFEC748874202D1DDF810A0AF
:1019B00001E0DDF80CA0A88910F4004F08D00AEB74
:1019C000CA0000EB0A1031684900B0FBF1F807E0EB
:1019D0000AEBCA0000EB0A1031688900B0FBF1F88D
:1019E0006420B8FBF0F004012009642101FB108998
:1019F000A88910F4004F08D0322000EBC900B0FBDA
:101A0000F1F000F00700044308E0322000EB091079
:101A10006421B0FBF1F000F00F0004432C8106B00C
:101A2000BDE8F0874FF41651016000218180C1802C
:101A300001810C21418100218181704710B502464E
:101A40000020108A4FF2FF0318400B884C88234374
:101A50008C882343CC8823431843108210BD002177
:101A6000018041808180C180704721B1828942F428
:101A70000052828104E082894DF6FF731A40828110
:101A80007047F0B503460024002600250020A1F58C
:101A900010676A3F00D100BF1846C1F3421401F03D
:101AA0001F06012707FA06F5012C01D10C3004E0CE
:101AB000022C01D1103000E014301AB107682F4316
:101AC000076002E00768AF430760F0BD10B51AB1C8
:101AD000838A0B43838204E0838ACC43A4B22340ED
:101AE000838210BD028A4FF6F0731A400282028A86
:101AF0000A430282704782894FF2FF731A40828143
:101B000082890A438281704721B1828942F00202B0
:101B1000828104E082894FF6FD731A40828170470A
:101B2000028A4FF6DF731A400282028A0A43028257
:101B3000704721B1028A42F48042028204E0028AA4
:101B40004BF6FF731A4002827047C1F3080282808D
:101B5000704701468888C0F308007047818941F0CA
:101B6000010181817047028BD2B20283028B42EA6B
:101B7000012202837047028B02F47F420283028BB0
:101B80000A430283704721B1828A42F02002828296
:101B900004E0828A4FF6DF731A408282704721B1D7
:101BA000828A42F01002828204E0828A4FF6EF734A
:101BB0001A408282704721B1828A42F008028282F2
:101BC00004E0828A4FF6F7731A408282704721B18F
:101BD000828942F40042828103E08289C2F30E02CC
:101BE0008281704721B1828A42F40062828204E0DD
:101BF000828A4FF2FF731A4082827047828A4FF6C0
:101C0000FB731A408282828A0A438282704721B122
:101C1000828A42F00202828204E0828A4FF6FD73D9
:101C20001A408282704702460020B1F5007F00D141
:101C300000BF13880B4201D0012000E00020704754
:101C400001F40072B2F5007F00D100BFCA430280E8
:101C5000704770B502460024002300250020A1F53E
:101C600010666A3E00D100BFC1F3421501F01F03A8
:101C7000012606FA03F3012D02D19689334006E0CE
:101C8000022D02D1168A334001E0968A33400C12AD
:101C9000012606FA04F41688344013B10CB1012071
:101CA00000E0002070BD10B500220023A1F51064F3
:101CB0006A3C00D100BF0A1201249440A3B2DC4365
:101CC000048010BD0038014000440040004800403E
:101CD000004C00400050004010B50446FF488442CC
:101CE00008D10121C014FFF7A0FD0021E014FFF787
:101CF0009CFDC4E0B4F1804F08D101210846FFF7F4
:101D0000A1FD00210120FFF79DFDB8E0F4488442C9
:101D100008D101210220FFF795FD00210220FFF7E5
:101D200091FDACE0EF48844208D101210420FFF787
:101D300089FD00210420FFF785FDA0E0EA488442E8
:101D400008D101210820FFF77DFD00210820FFF7C1
:101D500079FD94E0E548844208D101211020FFF785
:101D600071FD00211020FFF76DFD88E0E0488442FE
:101D700008D101212020FFF765FD00212020FFF779
:101D800061FD7CE0DB48844208D101214014FFF76B
:101D90004CFD00216014FFF748FD70E0D6488442F6
:101DA00009D10121C804FFF740FD00214FF40020B4
:101DB000FFF73BFD63E0D148844209D101210805CA
:101DC000FFF733FD00214FF48010FFF72EFD56E0A2
:101DD000CB48844209D101214805FFF726FD0021A7
:101DE0004FF40010FFF721FD49E0C648844208D1B6
:101DF00001214020FFF726FD00214020FFF722FDB2
:101E00003DE0C148844208D101218020FFF71AFD3E
:101E100000218020FFF716FD31E0BC48844208D144
:101E200001218015FFF70EFD0021A015FFF70AFD27
:101E300025E0B748844209D101210804FFF7F5FCE9
:101E400000214FF48030FFF7F0FC18E0B1488442E5
:101E500009D101214804FFF7E8FC00214FF40030CC
:101E6000FFF7E3FC0BE0AC48844208D10121880471
:101E7000FFF7DBFC00214FF48020FFF7D6FC10BDFC
:101E800000220288954B98420ED09A4B98420BD074
:101E9000B0F1804F08D0924B984205D0914B9842B8
:101EA00002D0914B984204D14FF68F731A404B8861
:101EB0001A438E4B984207D08D4B984204D04FF670
:101EC000FF431A40CB881A4302808B8883850B8896
:101ED0000385824B98420BD0864B984208D08C4B9E
:101EE000984205D08B4B984202D08B4B984201D13F
:101EF0000B7A038601238382704770B50024002289
:101F00000023058C4FF6FE7635400584028C8388CD
:101F1000048B4FF68F752C40B51E2C400D882C433A
:101F2000751E2A400D892A434D882A436B4DA842CD
:101F30000BD0704DA84208D0754DA84205D0754D04
:101F4000A84202D0744DA84213D14FF6F7752A402B
:101F50004D892A434FF6FB752A408D882A434FF658
:101F6000FF652B404FF6FF552B408D892B43CD89C4
:101F70002B4383800483CD888586028470BD70B531
:101F8000002400220023058C4FF6EF7635400584AF
:101F9000028C8388048B48F6FF752C404FF6FF4572
:101FA0002C400D882D0644EA15444FF6DF752A4073
:101FB0000D892D0542EA15424D882D0542EA15424C
:101FC000464DA84202D04B4DA8421BD14FF67F751B
:101FD0002A404D892D0542EA15424FF6BF752A4029
:101FE0008D882D0542EA15424FF6FF352B404FF202
:101FF000FF752B408D89AD0443EA1543CD89AD04AF
:1020000043EA154383800483CD880587028470BD2D
:1020100070B5002400220023058C4FF6FF66354082
:102020000584028C8388848B4FF68F752C404FF685
:10203000FC752C400D882C434FF6FF552A400D8926
:102040002D0642EA15424D882D0642EA1542234DDF
:10205000A84202D0274DA8421BD14FF2FF752A405B
:102060004D892D0642EA15424FF6FF352A408D88EC
:102070002D0642EA15424EF6FF752B404DF6FF75D0
:102080002B408D892D0543EA1543CD892D0543EA63
:10209000154383808483CD888587028470BD70B5A5
:1020A000002200230024058C4EF6FF76354005847F
:1020B000038C8488828B48F6FF752A404FF6FF45D3
:1020C0002A400D882D0642EA15424DF6FF752B4039
:1020D0000D892D0743EA15434D881FE0002C014070
:1020E0000004004000080040000C004000100040C8
:1020F0000014004000340140004C014000500140F9
:102100000054014000180040001C00400020004026
:102110000040014000440140004801402D0743EACF
:102120001543F94DA84202D0F84DA84206D14BF60E
:10213000FF752C408D89AD0544EA15448480828367
:10214000CD88A0F84050038470BD828B4FF2FF33DE
:102150001A408283828B0B0642EA134282837047C5
:10216000F0B50C461546002200210026078C4EF6DD
:10217000FF7C07EA0C070784828B018C27073E0C43
:1021800040F6FF473A402F0642EA17421F0742EA4D
:102190001742DD4FB8420ED0DC4FB8420BD0B0F141
:1021A000804F08D0DA4FB84205D0DA4FB84202D09B
:1021B000D94FB84206D14DF6FF77394046F48057E3
:1021C000394305E047F6FF57394044F48057394317
:1021D00082830184F0BD828B4FF6F3731A408283B1
:1021E000828B0A4382837047F0B50C461546002265
:1021F00000210026078C4FF6FF6C07EA0C070784C6
:10220000828B018C27063E0C4FF60C773A401F0557
:1022100045EA17473A43BC4FB8420ED0BB4FB842CD
:102220000BD0B0F1804F08D0B94FB84205D0B94FAC
:10223000B84202D0B84FB84206D14FF6FF573940E6
:1022400046F48077394305E04FF2FF57394044F4B4
:102250008077394382830184F0BD028B4FF2FF33D4
:102260001A400283028B0B0642EA13420283704734
:10227000F0B50C461546002200210026078C4FF6CB
:10228000EF7C07EA0C070784028B018C27053E0CC4
:1022900040F6FF473A401F0742EA17422F0642EA3C
:1022A0001742994FB8420ED0984FB8420BD0B0F1B8
:1022B000804F08D0964FB84205D0964FB84202D012
:1022C000954FB84206D14FF6DF77394046F01007F8
:1022D000394305E04FF65F77394044F01007394342
:1022E00002830184F0BD028B4FF6F3731A40028320
:1022F000028B0A4302837047F0B50C461546002254
:102300000021068C4FF6FE773E400684028B018C3E
:102310004FF60C7632401E0545EA164632437A4E99
:10232000B0420ED0794EB0420BD0B0F1804F08D001
:10233000774EB04205D0774EB04202D0764EB042D2
:1023400006D14FF6FD76314044F00106314305E0F9
:102350004FF6F576314044F00106314302830184A3
:10236000F0BD70B505460C46674885420ED06748FB
:1023700085420BD0B5F1804F08D06548854205D025
:102380006448854202D06448854200D100E000BF25
:10239000208850B92389A28861882846FFF7ACFFBE
:1023A000E1882846FFF79FFF25E0208804280AD10E
:1023B0002389A28861882846FFF75AFFE1882846CA
:1023C000FFF74BFF17E0208808280AD12389A2884D
:1023D00061882846FFF708FFE1882846FFF7FBFEE3
:1023E00009E02389A28861882846FFF7B9FEE188C1
:1023F0002846FFF7AAFE70BD2DE9F04105460C46C0
:1024000000260127608808B9022600E00026A0887F
:10241000012801D1022700E001272088A0B92389E3
:10242000A28861882846FFF767FFE1882846FFF702
:102430005AFF23893A4631462846FFF719FFE188BB
:102440002846FFF70AFF13E02389A28861882846FF
:10245000FFF70EFFE1882846FFF7FFFE23893A4683
:1024600031462846FFF748FFE1882846FFF73BFF43
:10247000BDE8F0810A884B881A438B881A43CB88C1
:102480001A430B891A434B891A438B891A43A0F8C4
:10249000442070474FF6FF71818000210180C18088
:1024A0004180017270470021018041808180C1809C
:1024B000018141818181C18170470021018041807A
:1024C000012181800021C1800181704700210180AC
:1024D00041808180C180018141818181704721B12A
:1024E000028842F00102028004E002884FF6FE7387
:1024F0001A400280704789B1B0F8442042F400428B
:10250000A0F8442010E00000002C014000340140FD
:102510000004004000080040000C0040B0F84420D7
:10252000C2F30E02A0F84420704710B51AB1838997
:102530000B43838104E08389CC43A4B2234083818D
:1025400010BD8182704741EA0203A0F8483070470D
:1025500010B51AB183890B43838104E08389CC438E
:10256000A4B22340838110BD01894FF6F872114057
:10257000018170470A46002101894FF68F73194087
:1025800011430181704730B504460D462946204667
:10259000FFF7F0FF208940F00700208130BD2DE9D2
:1025A000F04104460D4616461F46602D06D13B46B7
:1025B000012231462046FFF75BFE05E03B46012243
:1025C00031462046FFF798FE29462046FFF7D2FF06
:1025D000208940F007002081BDE8F08130B50C462D
:1025E00000210189C9B21D0642EA15452543294348
:1025F000018130BD2DE9F04105460E46174698464B
:10260000002443463A4631462846FFF7E7FF2C8927
:102610004FF6F8710C4044F007044FF68F710C40F0
:1026200044F070042C81BDE8F081F0B504460D46FD
:1026300016461F463B46324629462046FFF7CEFF48
:10264000208940F480402081F0BD0185828270475E
:102650000A46002101884FF68F731940114301800B
:102660007047F0B50C4615461E4600210022002397
:102670000189028B038C4FF6F877394021434FF6DE
:10268000FC473A4040F201173A434FF6DD773B40B2
:10269000370545EA17473B43018102830384F0BDB8
:1026A0000A460021018B4FF68F73194011430183B5
:1026B00070470A460021018B48F6FF731940130644
:1026C00041EA1341018370470A460021818B4FF68E
:1026D0008F7319401143818370470A460021818B13
:1026E00048F6FF731940130641EA1341818370478E
:1026F00021B1028842F08002028004E002884FF695
:102700007F731A400280704721B1828842F0040230
:10271000828004E082884FF6FB731A408280704703
:1027200021B1828842F00802828004E082884FF65C
:10273000F7731A408280704721B1828842F001020B
:10274000828004E082884FF6FE731A4082807047D0
:102750000A460021018B4FF6F7731940114301839C
:1027600070470A460021018B4FF2FF731940130690
:1027700041EA1341018370470A460021818B4FF6DD
:10278000F77319401143818370470A460021818BFA
:102790004FF2FF731940130641EA134181837047DA
:1027A0000A460021018B4FF6FB7319401143018348
:1027B00070470A460021018B4FF6FF33194013067C
:1027C00041EA1341018370470A460021818B4FF68D
:1027D000FB7319401143818370470A460021818BA6
:1027E0004FF6FF331940130641EA134181837047C6
:1027F0000A460021018B4FF67F7319401143018374
:1028000070470A460021018BC1F30E01130641EA0D
:102810001341018370470A460021818B4FF67F7375
:1028200019401143818370470A460021818BC1F30F
:102830000E01130641EA1341818370470A460021C5
:10284000018C4FF6FD7319401143018470470A460D
:102850000021018C4FF6F773194011430184704732
:102860000A460021018C4FF6DF731940130541EA37
:102870001341018470470A460021018C4FF67F7393
:102880001940130541EA1341018470470A460021AB
:10289000018C4FF6FF531940130641EA134101849E
:1028A00070470A460021018C4FF2FF73194013064E
:1028B00041EA1341018470470A460021018C4DF61C
:1028C000FF731940130741EA13410184704730B583
:1028D000002301248C40A3B2048CDD43ADB22C4014
:1028E0000484048C02FA01F5ADB22C43048430BD9B
:1028F00030B5002304248C40A3B2048CDD43ADB278
:102900002C400484048C02FA01F5ADB22C430484FB
:1029100030BD70B50346002000241846183001254C
:102920008D40ACB21D8CE643B6B235401D8409B172
:10293000082909D100EB6100056825F070050560E4
:102940000568154305600CE00D1FADB200EB650096
:10295000056825F4E04505600568160645EA164554
:10296000056070BD21B1028842F00202028004E0DD
:1029700002884FF6FD731A400280704721B1028829
:1029800042F00402028004E002884FF6FB731A4012
:102990000280704721B1828842F08002828004E088
:1029A00082884FF67F731A408280704702884FF604
:1029B000F7731A40028002880A43028070478288B7
:1029C0004FF68F731A40828082880A438280704754
:1029D00002894FF6F8731A40028102890A43028184
:1029E000704702894FF67F731A40028102890A43B9
:1029F0000281704781847047818570478186704766
:102A00000187704781877047A0F84010704702889F
:102A10004FF6FF431A40028002880A430280704743
:102A20000146888E70470146088F70470146888F9F
:102A300070470146B1F8400070470146888C7047E6
:102A40000146088D704702460020138A0B4201D0D0
:102A5000012000E000207047CA430282704730B571
:102A60000246002000230024158A05EA0103958907
:102A700005EA010413B10CB1012000E0002030BDD3
:102A8000CA4302827047000010B50446BF48844222
:102A900008D101218014FEF7C8FE0021A014FEF722
:102AA000C4FE16E0BA48844208D101210014FEF7A2
:102AB000C9FE00212014FEF7C5FE0AE0B548844295
:102AC00007D10121C013FEF7BDFE0021E013FEF780
:102AD000B9FE10BD10B50022028802F441520B88E5
:102AE0004C8823438C882343CC8823430C8923437D
:102AF0004C8923438C892343CC8923431A43028086
:102B0000838B4FF2FF74234083830B8A038210BDB3
:102B10002DE9F04F85B005460C464FF0000902271D
:102B20004FF000084FF0010B0026B246A88B4FF281
:102B300040010840A88302202884B5F81C90A068B2
:102B4000022801D100BF36E0A08810B94FF0010B78
:102B500001E04FF0020B8E48854200D100E000BF3B
:102B60006846FEF7DBFDDDF800A0E088B0F5007FE9
:102B70000AD14FEA1A2000EB80004000A168B0FBA8
:102B8000F1F0401D86B20BE04FEA4B10BAFBF0F0BB
:102B900000EB80004000A168B0FBF1F0401D86B260
:102BA0000A20B6FBF0F606F00108A6EB0800C0F319
:102BB0004F074FEA0828022F01DBFF2F02DD022713
:102BC0004FF00008E08840EA080038432884A088D5
:102BD000A1890843618808432188084340F40060C4
:102BE00040EA0909A5F81C9005B0BDE8F08F002166
:102BF000018041808180C180018141818181C181C9
:102C00000721018270470021018041808180C180BD
:102C10000221816000218181704721B1028842F048
:102C20004002028004E002884FF6BF731A4002801F
:102C3000704721B1828B42F48062828304E0828BF0
:102C40004FF6FF331A408283704770B5002400238B
:102C50000C110125A540ABB21AB185881D438580B2
:102C600004E08588DE43B6B23540858070BD10B57E
:102C70001AB183880B43838004E08388CC43A4B2D9
:102C80002340838010BD8181704701468889704749
:102C9000A1F57E42FF3A04D0028842F4807202809D
:102CA00004E002884FF6FF631A400280704721B1AA
:102CB000828842F00402828004E082884FF6FB732F
:102CC0001A408280704702884FF2FF731A400280D8
:102CD00002880A4302807047018841F480510180D4
:102CE000704721B1028842F40052028004E0028859
:102CF0004DF6FF731A4002807047024600200129FA
:102D000001D0108B00E0908A70470146088A704716
:102D1000B1F5804F04D1028842F48042028004E081
:102D200002884BF6FF731A4002807047024600206B
:102D300013890B4201D0012000E000207047CA43F4
:102D400002817047F0B502460020002400230025D0
:102D500001F00F070126BE40B4B20B1101269E40C0
:102D6000B3B2968806EA03051689264202D00DB151
:102D7000012000E00020F0BD10B5002201F00F049A
:102D80000123A3409AB2D343038110BD0030014018
:102D900000380040003C004001460020FF4A106817
:102DA00000F03800084310607047FC49096821F0C2
:102DB0000801FA4A11601146096801431160704721
:102DC000F649096821F01001F44A116011460968BA
:102DD000014311607047F248F0494860F14848608B
:102DE0007047EF48ED494860EE4848607047EB484F
:102DF000006940F08000E94908617047E7480069D0
:102E000040F08000E549086170470420E349C96843
:102E100001F00101012901D101200EE0DF49C9685B
:102E200011F0040F01D0022007E0DC49C96811F05D
:102E3000100F01D0032000E00420704700B50246C7
:102E40000423FFF7E2FF034603E0FFF7DEFF03463C
:102E5000521E012B01D1002AF7D102B905231846D1
:102E600000BD30B5044604254FF43020FFF7E6FFDF
:102E70000546042D17D1C948006940F00200C74932
:102E8000086108464461006940F0400008614FF461
:102E90003020FFF7D3FF0546C048006941F6FD71B9
:102EA0000840BE490861284630BD10B504244FF4DF
:102EB0003020FFF7C3FF0446042C16D1B748006941
:102EC00040F00400B54908610846006940F0400040
:102ED00008614FF43020FFF7B1FF0446AF480069A6
:102EE00041F6FB710840AD490861204610BD00B5B0
:102EF00002460423FFF789FF034603E0FFF785FF3F
:102F00000346521E012B01D1002AF7D102B9052335
:102F1000184600BD10B504244FF43020FFF7E7FF3A
:102F20000446042C16D19D48006940F004009B49DA
:102F300008610846006940F0400008614FF4302005
:102F4000FFF7D5FF04469548006941F6FB7108403C
:102F500092490861204610BD00209049C96911F0CE
:102F6000020F01D0012000E00020704730B5A525F8
:102F70000424FFF7F1FF00B100254FF43020FFF7E4
:102F80005DFF0446042C3BD1854884498860854810
:102F900088600846006940F0200008610846006922
:102FA00040F0400008614FF43020FFF747FF04462F
:102FB000042C1CD17948006941F6DF71084077493B
:102FC00008610846006940F01000086176480580F5
:102FD0004FF40050FFF732FF0446052C10D06F4825
:102FE000006941F6EF7108406C49086108E0052C62
:102FF00006D06A48006941F6EF71084067490861E8
:10300000204630BDF0B504460D4604260027F002E8
:10301000FFF714FF0646042E22D16048006940F0F5
:1030200001005E4908612580F002FFF707FF0646B0
:10303000042E0ED1A71C280C3880F002FFF7FEFEEC
:1030400006465648006941F6FE710840534908613A
:1030500006E05248006941F6FE7108404F49086198
:103060003046F0BD70B504460D460426F002FFF769
:10307000E5FE0646042E11D14848006940F00100E3
:10308000464908612580F002FFF7D8FE064643480E
:10309000006941F6FE71084040490861304670BD44
:1030A00070B505460E460424E002FFF7C7FE04464D
:1030B000042C17D13A48394988603A488860084654
:1030C000006940F0100008612E80E002FFF7B6FEB4
:1030D0000446052C06D03148006941F6EF710840DE
:1030E0002E490861204670BD2DE9F04304464FF695
:1030F000FF763746B046B1460425E443E6B2C4F352
:103100000727C4F307484FEA1469E802FFF796FE61
:103110000546042D3ED12248204988602148886018
:103120000846006940F010000861FF2E06D01F48D5
:1031300006804FF40050FFF781FE0546042D08D1AC
:10314000FF2F06D01A4807804FF40050FFF776FE95
:103150000546042D09D1B8F1FF0F06D01548A0F897
:103160000C88E802FFF76AFE0546042D09D1B9F183
:10317000FF0F06D00F48A0F80E98E802FFF75EFE9A
:103180000546052D06D00548006941F6EF71084057
:10319000024908612846BDE8F08300000020024093
:1031A00023016745AB89EFCD00F8FF1F08F8FF1F2B
:1031B0000AF8FF1F00F0FF1F30B5054604244FF446
:1031C0003020FFF73BFE0446042C41D15F486049A4
:1031D0008860604888600846006940F02000086107
:1031E0000846006940F0400008614FF43020FFF7C6
:1031F00025FE0446042C22D15548006941F6DF71B2
:103200000840534908610846006940F01000086111
:103210001DB100205049088002E0A5204E490880D9
:103220004FF43020FFF70AFE0446052C10D0484822
:10323000006941F6EF7108404549086108E0052C36
:1032400006D04348006941F6DF71084040490861F3
:10325000204630BDF0B505460E46174604243B48CF
:103260003B4988603B488860E002FFF7E7FD044681
:10327000042C19D13648006940F010003449086127
:1032800047F0F80030432843344908804FF4005099
:10329000FFF7D4FD0446052C06D02D48006941F601
:1032A000EF7108402A4908612046F0BD2848C069EE
:1032B000800870472648006A704700202449096842
:1032C00011F0200F01D0012000E00020704729B14B
:1032D0001F4A126902431E4B1A6104E01C4A12691C
:1032E00082431B4B1A61704701460020012908D117
:1032F000174AD26912F0010F01D0012008E0002026
:1033000006E0134AD2680A4201D0012000E0002002
:1033100070470F49C860704704200D49C96801F023
:103320000101012901D101200EE00949C96811F00C
:10333000040F01D0022007E00549C96811F0100F01
:1033400001D0032000E004207047000023016745FE
:1033500000200240AB89EFCD00F8FF1F02F8FF1FED
:1033600070B504460D46656001F0BAFB206070BD83
:10337000D0E9001211440160704710B5044601F015
:10338000AFFB206010BD10B5044601F0A9FB216819
:10339000401A6168884201DB012010BD0020FCE773
:1033A000FA4908807047C2780A44F94BDA7082788B
:1033B00002EB21229A7042785A7002781A701A46EB
:1033C0009278B2EB212F0ADA1A465278521C5A70C0
:1033D0001A4652781AB91A461278521C1A70EC4AD8
:1033E000D278CBB29A4212DAE94A9278521CE84B70
:1033F0009A701A46927852B91A465278521C5A70EC
:103400001A4652781AB91A461278521C1A70704726
:10341000F0B50B46144619461E19751E0BE04E7882
:103420000F7806EB0726B2B28618B0B2904201DAE6
:10343000461CB0B2891CA942F1D3A9420AD10E7828
:10344000002707EB0626B2B28618B0B2904201DA26
:10345000461CB0B2F0BD0146080240EA212080B20D
:10346000704770B504460D462A4621460020FFF7F6
:10347000CFFF0646FFF7EFFF70BD10B51422C54918
:103480000020FFF7C5FF044614B94FF6FF7002E0B5
:103490002046FFF7E0FF80B210BD70B50446BD487E
:1034A0000E38417C007C01EB0020143885B22819CD
:1034B00086B20822B7490C313046FFF7A9FF06460D
:1034C0002A46B44914313046FFF7A2FF064616B922
:1034D0004FF6FF7002E03046FFF7BDFF80B270BDCF
:1034E00010B50620FFF7D9FF10BD10B51120FFF76A
:1034F000D4FF10BD0020A84908700AE00020A749A9
:10350000A54A127821F81200A3480078401CA2496D
:103510000870A14800782828F0DB00209E49087038
:103520000DE000209C49097801EB81019C4A02EBE7
:10353000C101487698480078401C97490870964821
:1035400000782828EDDB4FF48060964908807047AA
:1035500030B504460D4600BF92480088401C914992
:10356000088008460088B0F5FA4F02DB4FF480501F
:10357000088000208849087015E08748007800EB33
:103580008000874901EBC002507E38B18548008831
:10359000FFF761FF9188884200D1DDE77E4800781F
:1035A000401C7D4908707C4800782828E5DB002213
:1035B00000207949087018E07748007800EB800017
:1035C000774901EBC003587E08B91A4611E0587ECE
:1035D000072805D11AB1987E917E884200DD1A46EF
:1035E0006D480078401C6C4908706B4800782828AA
:1035F000E2DB00BF0AB9002030BD022050766A48E5
:103600000078107368484178517381789173C1785C
:10361000D17340F6CA70508290820120108200203F
:10362000D07601209076032010760020907510202F
:10363000D0755C480088FFF70EFF9080D58000BFF2
:10364000208810806088508000BF1046D4E7002199
:10365000514A117012E051494F4A127831F8121054
:10366000814206D100214D4A4B4B1B7822F81310A2
:10367000704749490978491C474A117046490978F9
:103680002829E8DB00BFF3E70021434A117010E06E
:103690004249414A127831F8121029B93F493E4A4D
:1036A000127821F8120070473B490978491C3A4AC0
:1036B0001170394909782829EADB00BFF3E710B512
:1036C00004462146394800680830FFF76CFE304850
:1036D00000783649096808722D48417833480068F7
:1036E00041722B4881783148006881722848C1783E
:1036F0002E480068C17210BD70B505462B4804689D
:10370000244828302A4908602A490860032D0DD131
:10371000607E00F00F00032807D1208A28B9082016
:103720002549087001F06AFBFDE328E3022D7DD1F5
:103730001D48C078401C10F0FF001B49C87011D113
:1037400008468078401C10F0FF0088700AD10846B7
:103750004078401C10F0FF00487003D10846007804
:10376000401C087000201549088015490880607EBB
:10377000072802D0607E052824D1A07E401CA076B8
:10378000A07E78287AD10020607677E0840000203F
:103790008C0000200E88002090000020449E002015
:1037A000049800208A00002086000020800000206D
:1037B00070000020740000207C00002078000020B1
:1037C0007A000020607E90B3208A88B3A17E481ED4
:1037D000A07661BBE07E082808D0607E022802D077
:1037E000607E01280ED1E07E05280BD10020607696
:1037F0008020FF49087001F001FB1421FD4880F88A
:103800002F10FEE3E07E042801DD042000E0E07ECE
:1038100003218140A176E07E401CE076F648C08C12
:10382000401C81B2F448C184607E02E027E025E0BC
:1038300019E000F00F00092820D2DFE800F01F0592
:10384000060B111F121F130035E30021E94880F811
:103850002F1035E30420E649087001F0CFFAFDE3AC
:1038600000BF00BFFBE3607E00F00F00032805D11E
:103870000820DF49087001F0C1FA54E37FE2DE4816
:103880004088401CDC494880DA48807B45280BD0C2
:1038900008460088401C08800846C088401CC88034
:1038A000D6A001F0BCFA6AE2D248417C007C01EB70
:1038B0000020DC490988884207DCCE48417C007C36
:1038C00001EB0020D749088003E0D7A001F0A7FA58
:1038D00055E2C848007D10F03F0F02D1C548407D39
:1038E00060B1C5480088401CC349088008468089EB
:1038F000401C8881D8A001F092FA40E2DC480088A0
:10390000DC490988884205D1D9484088D949498885
:10391000884211D0B748C08BD5490988884205D163
:10392000B448008CD2494988884205D0B248008802
:10393000401CB149088022E2FFF79FFDA0F57F41BE
:10394000FF390CD0AC480088401CAB4908800846C1
:10395000C089401CC881C8A001F061FA0FE2A548E7
:10396000C07D062800D158E0A248C07D01280CD0B7
:10397000A1480088401CA04908800846008A401CD5
:103980000882C2A001F04BFAF9E19B48808A401CF2
:1039900081B299488182974890F8220008280ED079
:1039A0009548408A401C944948820846008B401C38
:1039B00081B291480183BCA001F031FADFE100211E
:1039C0008C4880F82210808C4FF6F771884206DB15
:1039D0008848808C093081B28648818405E085481A
:1039E000808C083081B28348818400BF8148418B3C
:1039F000C183818B018400BF00BF9D4801887D4841
:103A000041839B4841887B48818300BF7A48C08AB4
:103A1000401C81B27848C182FDE37748808B401C0E
:103A200081B275488183FFF75BFDA0F57F41FF39C7
:103A30000ED07148408B401C6F4948830846008C6B
:103A4000401C81B26C4801849DA001F0E8F996E128
:103A5000A04C17E0607EA0B16648808CA1888842A7
:103A60000FD16448408CE18888420AD16148408B7C
:103A70002188884205D15F48808B6188884200D1C7
:103A80003BE2283494488442E4D95A4890F82F0005
:103A900000F03F00022800D021E05648808C8F497A
:103AA000088000208E4908700EE08E488C49097805
:103AB00030F8110089490988884200D11AE1884804
:103AC0000078401C86490870854800782828ECDB7F
:103AD0004948408D401C81B24748418500BF454858
:103AE00090F82F0010F0040F00D048E14248808C7D
:103AF000401C81B24048818414213E4880F82F1038
:103B000028204849088050213A4880F82E1090F823
:103B1000290073490870374890F82D1080F8291053
:103B20006F480178334880F82D1090F828006C49D0
:103B30000870304890F82C1080F8281068480178F8
:103B40002C4880F82C1090F8270065490870294807
:103B500090F82B1080F8271061480178254880F8EC
:103B60002B1090F826005E490870224890F82A1021
:103B700080F826105A4801781E4880F82A1090F8DC
:103B80002D00401C10F0FF011A4880F82D1018D1AC
:103B900090F82C00401C10F0FF01164880F82C1003
:103BA0000FD190F82B00401C10F0FF01114880F855
:103BB0002B1006D190F82A00401CC1B20D4880F8A5
:103BC0002A100C48408C454908800A48818C418461
:103BD000424801880748818400BF418BC183818BA3
:103BE000018400BF00BF22480188024841837BE076
:103BF0007C00002000880020949E002069703A20FC
:103C0000696E76616C69642076657273696F6E2087
:103C10006F7220686561646572206C656E67746898
:103C20002E0000007800002069703A207061636BFC
:103C300065742073686F72746572207468616E2099
:103C40007265706F7274656420696E2049502068D7
:103C500065616465722E000069703A206672616762
:103C60006D656E742064726F707065642E00000064
:103C700062000020BA54000869703A206261642032
:103C8000636865636B73756D2E00000069703A2080
:103C90006E65697468657220746370206E6F72203F
:103CA00069636D702E00000069636D703A206E6F5D
:103CB000742069636D70206563686F2E00000000DA
:103CC0007463703A2062616420636865636B737526
:103CD0006D2E0000049800201C9E00209200002001
:103CE00090000020449E0020FE484188FE488183C9
:103CF00000BFFEE300240020FC49087030E0FB48D0
:103D0000007800EB8000FA4901EBC000407E30B93A
:103D1000F648007800EB800001EBC00424E0F34893
:103D2000007800EB8000F24901EBC000407E0728DC
:103D300011D14CB1ED48007800EB800001EBC000E0
:103D4000807EA17E884206DDE848007800EB800096
:103D5000E74901EBC004E5480078401CE3490870DE
:103D6000E24800782828CADB00BF4CB9E148008D42
:103D7000401C81B2DF480185DFA001F050F88AE2E3
:103D8000E64804600320A07620760020A075042079
:103D9000E0750020E076D448808CA080D248408C2A
:103DA000E08000BFD048408B2080CF48808B60806F
:103DB00000BF01206076DA4800782073D848417847
:103DC00061738178A173C178E17301202082C648B4
:103DD00090F82910E17290F82810A17290F827103D
:103DE000617290F8260020720120FFF768FCBE483F
:103DF00090F82E0000F0F00050285BDD0020BB4959
:103E000008704BE0B94800783630B749085CC549BE
:103E100008700846007800B94BE0C24800780128D5
:103E200005D1B2480078401CB049087036E0BD4862
:103E30000078022821D1AD4800783730AA49085CC3
:103E400004281AD1A94800783930095CA7480078BD
:103E50003830A54A105C41EA0020B3490880084682
:103E6000008840F6CA71884201DD084601E0AE488C
:103E7000008880B26082A0821BE09C4800783730C6
:103E80009949085C00B914E09848007837309649A1
:103E9000085C96490978084494490870924890F85B
:103EA0002E000521C1EB201090490978B1EB800F5D
:103EB000A8DB00BF00BF10218B4880F82F1000BF87
:103EC000894890F82F0040F00200874981F82F00C0
:103ED0000221854880F83610042180F837100F2120
:103EE00080F83810CA2180F839102C208F490880BA
:103EF00060217D4880F82E1023E38848046000206C
:103F00008B490870784890F82F0010F0040F0BD000
:103F10000020607687A000F082FF2020844908708E
:103F200000F06CFFACE32BE26F4890F82E0000111C
:103F300080006E4908707D4800880978401A14385E
:103F40007A490880607E00F00F00022806D166489A
:103F500090F82F0000F03F00122822D0734800880C
:103F6000002805DC604890F82F0010F0030F18D0EF
:103F70005D4890F82600217A884211D15A4890F87D
:103F80002710607A81420BD1574890F82810A07A08
:103F9000814205D1544890F82910E07A814200D03E
:103FA000C1E2514890F82F0010F0100F54D0208A31
:103FB00040B3218A04F10C00FFF7F5F94A4890F864
:103FC0002A0066490978884246D1474890F82B0074
:103FD0006249497888423FD1434890F82C005F49B4
:103FE0008978884238D1404890F82D005B49C978DB
:103FF000884231D15948007820735848417861731C
:1040000001E095E228E08178A173C178E173E07E58
:10401000D8B9217EA27E891A48B2A17DA0EBE10128
:1040200048B2A17D0144A175002801DA414248B29D
:10403000E17DA0EBA10148B2E17D0144E175E17DA4
:10404000A27D01EBE201217600BF01203849087012
:10405000207EA07600202082607E01E0D0E139E160
:1040600000F00F0009287DD2DFE800F07C0525FE76
:10407000FDFCFBFAF9002E48007810F0010F19D072
:104080000320607640202A490870002020822748BB
:104090000088002808DD0846007840F0020008701B
:1040A00022480088FFF70BFB00202D49088000F014
:1040B000A5FE65E1E4E21E48007810F0010F7ED015
:1040C000094890F82F0000F03F00122877D10648E9
:1040D00090F82E0000F0F000502871DD0020034918
:1040E00008708FE06200002000880020900000200F
:1040F00004980020949E00207463703A20666F75C7
:104100006E64206E6F20756E7573656420636F6ECC
:104110006E656374696F6E732E000000800000206E
:1041200086000020910000209200002078000020EE
:104130007C0000207463703A20676F74207265738E
:1041400065742C2061626F7274696E6720636F6E94
:104150006E656374696F6E2E000000008C00002095
:104160007A000020DDE1FF4800783630FE49085C27
:10417000FE4908700846007800B950E0FB48007816
:10418000012805D1F7480078401CF649087039E04D
:10419000F6480078022824D1F24800783730F249F6
:1041A000085C04281DD1EF4800783930095CED48DF
:1041B00000783830EC4A105C41EA002001E054E01D
:1041C0002EE0EB4908800846008840F6CA71884214
:1041D00001DD084601E0E648008880B26082A082E6
:1041E0001DE0E04800783730DF49085C00B916E090
:1041F000DC4800783730DC49085CDA490978084443
:10420000D8490870D84890F82E000521C1EB20103D
:10421000D449097800E02AE2B1EB800FA3DB00BFAC
:1042200003206076D04890F826002072CE4890F89F
:104230002710617290F82810A17290F82910E1728D
:104240000120FFF73CFA4220CA4908700020208272
:10425000C9490880C949088000F0D0FD90E0F1E02C
:1042600054E154E12FE1FAE009E02020C14908704F
:1042700000F0C4FD0020C249096848762FE4BA481E
:1042800090F82F0010F0010F29D0607E10F0100F71
:1042900025D1208A00B1F3E1B7490988491C88B2C9
:1042A000FFF70DFAB348007840F01000B1490870EC
:1042B000B1480088002804DD0846007840F002007C
:1042C000087000F09BFD012020820820607600200D
:1042D000E07600BF1121A44880F82F1028E1A24801
:1042E00090F82F0010F0200F17D09F4890F835104D
:1042F00090F8340041EA0020A24909680844A14925
:104300000860994890F8351090F8340041EA002090
:1043100099490988081A9849088097480088002810
:104320000DDD607E10F0100F09D19248007840F04A
:1043300002009049087090480088FFF7C0F98A4849
:1043400090F8311090F8300001EB00208849088087
:10435000A08A0988884202DB8548008810B9A08AB3
:10436000834908808248008860828248007810F083
:10437000030F66D000208149088000F03FFD00BF98
:104380007C48007810F0200F08D000207B4908807E
:1043900060761421744880F82F10C9E075480078C1
:1043A00010F0100F0DD000207449088001202082E9
:1043B000042060760020E07611216B4880F82F10F1
:1043C000B6E06E480088002817DD6A48007810F0D3
:1043D000010F01D000202082208A58B9608A6749E5
:1043E0000988884202DA608A644908806348008844
:1043F000208202E0208A614908800020E07600BF28
:10440000614800685F4908605C48008800280BDD4F
:10441000208A002808DD208A283057490880182182
:10442000514880F82F1087E05248007810F0020FB2
:1044300007D028205049088010214B4880F82F10C1
:104440007AE01DE14B48007810F0010F06D0002003
:10445000607610204749087000F0D0FC61E04648C3
:104460000088002803DD44480088FFF728F93E480B
:1044700090F82F0010F0010F15D03E48007810F092
:10448000010F05D0072060760020A076208201E091
:10449000062060760120FFF712F9102035490870D8
:1044A00000F0ACFC3FE03348007810F0010F04D07E
:1044B0000520607600202082E2E02F480088002856
:1044C00000DD30E0DCE02C480088002803DD2A48CD
:1044D0000088FFF7F4F8244890F82F0010F0010F3F
:1044E0000ED0072060760020A0760120FFF7E7F8C5
:1044F00000E07DE010201F49087000F07FFC12E012
:104500001D480088002800DD0DE0B9E00BE01948E7
:10451000007810F0010F03D0072060760020A0760D
:1045200000BF00BFACE010210F4880F82F1000BF83
:1045300028201149088000BF50210B4880F82E1018
:1045400000BF217A084880F82A10617A80F82B1081
:10455000A17A80F82C10E17A80F82D10217B80F868
:10456000261013E090000020008800209100002019
:10457000920000207C000020780000207A000020BB
:10458000800000207000002074000020617B80F813
:104590002710A17B80F82810E17B80F829100621E4
:1045A000C175A1884184E188818400BF41480188A8
:1045B000414841833F4841883F48818300BF00BF55
:1045C0002188C1836188018400BF607E10F0100FD4
:1045D00006D00021384880F8311080F8301006E00D
:1045E0000F21354880F83010CA2180F8311000BF03
:1045F0004021314881753148008800122E490874E5
:104600002E480088C1B22C484174002180F8351032
:1046100080F834104186FEF763FFC04381B226481C
:10462000418645202449887300212348C173417580
:10463000017523480088401C2149088008460088ED
:1046400000121D4988741E480088C1B21A48C174FE
:1046500000210183FEF711FFC04381B21648018398
:104660001848C08B401C81B21648C18300BF154852
:104670008088401C1349888000201349087070BD51
:1046800000200E4908801049087000BFF7E770B598
:1046900004460D46002D0CDD0C490D800C480068C9
:1046A000844206D00846028821460948006800F086
:1046B00010FD70BD620000200088002078000020FE
:1046C00084000020949E00207C0000207A000020BE
:1046D000740000200020F34908700DE0F1480078D4
:1046E00000EB4000F04901EB800000210160ED4843
:1046F0000078401CEB490870EA4800780828EDDB98
:104700007047EA490978491CE84A11700021E54AD6
:10471000117017E0E349097801EB4101E24A02EB2D
:10472000810001884288114307D0817ADF4A1278DC
:10473000511A782901DB00210160DA490978491C06
:10474000D84A1170D74909780829E3DB704710B5BA
:1047500002460023D34C23701FE0D24B1B7803EB9F
:104760004303D14C04EB830003888BB143887BB1B6
:1047700013880488A3420BD153884488A34207D1ED
:104780000B6843608B880381C84B1B78837210BD14
:10479000C44B1B785B1CC34C2370C24B1B78082B8B
:1047A000DBDB0023BF4C237010E0BE4B1B7803EB18
:1047B0004303BD4C04EB8300038813B9438803B95A
:1047C00008E0B84B1B785B1CB64C2370B54B1B78CC
:1047D000082BEADB00BFB34B1B78082B34D1002336
:1047E000B34C2370B34C2370AE4C23701DE0AD4B23
:1047F0001B7803EB4303AC4C04EB8300837AAB4C94
:104800002478E31AAA4C2478A34209DD837AA74CC2
:104810002478E31AA64C2370A24B1B78A54C237076
:10482000A04B1B785B1C9F4C23709E4B1B78082B66
:10483000DDDBA04B1B789B4C237023461B7803EBDE
:104840004303994C04EB8300136803600B684360D7
:104850008B880381954B1B78837200BF97E710B557
:10486000954800882A2803D200209349088010BD6B
:104870000020914908809148808AB0F5807F03D05C
:10488000B0F5007F54D141E08C48C08C8C49098838
:1048900088423AD18948008D89494988884234D173
:1048A00086491631881DFFF752FF4FF40070834987
:1048B00088820846D1F816200262498B818481499A
:1048C0000A68C0F81620898841837E490A68C0F8C2
:1048D00006208988418101460A6A0260898C8180AC
:1048E000808B7649C8840846C18B0185744800884E
:1048F00072498883724841887048C1834FF4C1600F
:104900006E4988812A206C49088011E06B48C08C70
:104910006B49098888420AD16848008D68494988EE
:10492000884204D165491631881DFFF710FF00BF8A
:1049300000BF00BF9BE710B56048C08B6249098883
:1049400088420CD15D48008C5F494988884206D175
:104950005A485E490A6802608988818091E0574818
:10496000C08B5B490988084055490988584A128814
:10497000114088420BD15148008C55494988084064
:104980004F494988524A52881140884208D000BF96
:1049900050480088504908804E484088488008E0C8
:1049A00000BF4648C08B4C4908804448008C488072
:1049B00000BF00203B49087016E03A48007800EB41
:1049C0004000394901EB800443480088218888422F
:1049D00005D1414840886188884200D108E03148CB
:1049E0000078401C2F4908702E4800780828E4DB26
:1049F00000BF2C48007808283ED1FF2206212F480E
:104A000000F0ACFB2D480021016281842D490A6829
:104A1000C0F80620898841812A490A68C0F8162012
:104A20008988418300BF2C4800882449C8842A48CB
:104A300041882248018500BF00BF214800881F49E6
:104A400088831F4841881D48C18300BF4FF4807090
:104A50001A498882C88108200882062088740420A8
:104A6000C8744FF4C160888101F136001B490860A9
:104A70002A201149088010BD104861680160218911
:104A800081800E480F490A68C0F806208988418154
:104A900008200A498881084800880E3006490880A5
:104AA00000BFE8E7980000206C0900209A00002071
:104AB0009B00002099000020780000200088002042
:104AC000620000205C000020C4540008BE540008AE
:104AD0006A00002066000020940000207000002082
:104AE00001480068704700003000002070B50025C4
:104AF0001148FCF772F80546002405E00E48005DF9
:104B00000E490855601CC4B2062CF7DB40F2764112
:104B10001420FCF743F8284670BD10B5084940F250
:104B2000EE50FCF749F980B210BD10B504490548B4
:104B30000088FCF70EF910BDC85400085C00002086
:104B4000008800207800002010B57C48006800F143
:104B50001C04A068002803DDD4E90101FFF797FDDC
:104B600010BD10B57548006800F11C040020A0605D
:104B700073A000F054F910BD10B57048006800F142
:104B80001C047448007840F080007249087072A0DC
:104B900000F045F900202070A06075A0606060689A
:104BA00000F078FAA06010BD38B500BF4AF6C0002A
:104BB000ADF800004FF4CE40ADF8020000BF4FF456
:104BC000AF60FEF748FC044601466846FEF7C0FCAD
:104BD00038BD10B55F48007820F080005D4908704E
:104BE000FFF7E2FF6CA000F01AF910BD10B55948AC
:104BF000007820F08000574908706DA000F00FF990
:104C000010BD10B55348007820F08000514908705D
:104C1000FFF7CAFF6CA000F002F910BD70B50024C8
:104C20004648006800F11C056D48007810F0200F20
:104C300001D0FFF7E6FF6A48007810F0800F01D03E
:104C4000FFF7D4FF6648007810F0100F01D0FFF78F
:104C5000C0FF6348007810F0400F01D0FFF78CFFD1
:104C60005F48007810F0010F01D0FFF77AFF5C4831
:104C7000007810F0020F33D03648007810F0400F63
:104C80003ED15848008840F2DB51884204DD0020C4
:104C90005549096881F8DB0554480078A0B1002423
:104CA0000DE051480068005D5149524A128888540D
:104CB00050480088401C4F490880601C84B2494815
:104CC0000088401EA042ECDA474801684A4800F0DC
:104CD000BDF92048007840F040001E4908700FE000
:104CE0001C48007810F0200F0AD04348686000F09C
:104CF000D1F9A8601748007820F020001549087005
:104D00003748007810F0040F13D13548007810F0C0
:104D1000020F0ED13248007810F0010F09D130484F
:104D2000007810F0400F04D12D48007810F0080FE3
:104D300001D0FFF709FF002470BD000080000020B3
:104D40007463705F636C69656E742061636B656426
:104D5000210D0A009E0000207463705F636C69651A
:104D60006E7420636F6E6E6563746564210D0A0056
:104D70005443505F636C69656E7420436F6E6E655B
:104D800063746564205375636365737366756C6CD7
:104D900079210D0A000000007463705F636C69651F
:104DA0006E7420636C6F736564210D0A000000004F
:104DB0007463705F636C69656E742074696D656F90
:104DC0007574210D0A0000007463705F636C69657F
:104DD0006E742061626F72746564210D0A000000B8
:104DE0007C000020780000207000002007000020D8
:104DF000001000209C000020CC09002010B500BF4E
:104E000000BF00BF09480068C088A0F5F040053821
:104E100002D1FFF703FF00E000BF00BF10BD10B5D7
:104E20000446214602A000F059F810BD8000002081
:104E3000754950206C6F673A25730D0A0000000019
:104E40002DE9F05F06460F4690460024B3463D46E6
:104E5000A1461CE068784FEA002A287850441FFADF
:104E600080FAAD1C2046611C8CB2184921F810A0B4
:104E7000B4F5806F07D100244FF480625846FBF7E9
:104E8000FEFC0BF5006B09F102001FFA80F9C14529
:104E9000E0D324B122460D495846FBF7F0FCBDE8AB
:104EA000F09F10B50446206809490840B0F1005F42
:104EB0000AD16068074908602068FBF794F9FBF79E
:104EC00090F904480068804710BD0000C09E002093
:104ED0000000FE2FA0000020704700000FB404491E
:104EE00010B503AA029800F013FA10BC5DF814FB89
:104EF000440000200FB41CB5074B06AA7B4469464A
:104F00000090059800F0D5F90020694600F0E4F91A
:104F10001CBC5DF814FB0000D90300002DE9F04132
:104F200004460E4600200AE0E1682046884738B370
:104F3000252806D0D4E901219047206A401C206230
:104F4000F2E7E168204600278847050018D0A5F160
:104F50004100192802D820354FF40067324629460F
:104F600020462760FBF71EF940B1012804D0F61D4A
:104F700026F007060836D7E7361DD5E72846D9E7D5
:104F8000206ABDE8F08170B505460C46012A05D0BF
:104F90002868800600D5EA69002302E0012305E0C5
:104FA0005B1C934202D2E05C0028F9D1A869E618A4
:104FB000C01AA861286A184428622846AFF3008006
:104FC00004E0D5E9012114F8010B9047B442F8D36D
:104FD0002846AFF3008070BD2DE9F04180460026E1
:104FE00010687529414615A512D0AFF3008000283E
:104FF00003DAC0F1000012A508E0D8F800108A0713
:1050000001D510A502E0490704D50FA5012601E04E
:10501000AFF30080002408F1240704E000F0DEF97B
:1050200030313955641C0028F8D133462A462146D0
:105030004046BDE8F04100F0DDB80000000000008F
:105040002D0000002B0000002000000040EA0103BA
:10505000024630B59B0710D14FF0013400E008C282
:1050600008C91D1B9D4315EAC41FF8D013F0FF01AA
:1050700002F8011B0DD01B0AF8E711F8013B002BC9
:1050800002F8013B05D011F8013B002B02F8013B6F
:10509000F3D130BD10B5431C02E010F8011B71B113
:1050A0008107FAD14FF0013202C88C1A8C4314EAFE
:1050B000C211F9D0C01A0A0603D0C01E10BDC01A12
:1050C00010BD0A0401D0801E10BD0902FCD0401E94
:1050D00010BD032A40F2308010F0030C00F0158060
:1050E00011F8013BBCF1020F624498BF11F801CBEB
:1050F00000F8013B38BF11F8013BA2F1040298BF50
:1051000000F801CB38BF00F8013B11F0030300F0B9
:105110001181083AC0F0088051F8043B083A51F870
:1051200004CBA0E80810F5E7121D5CBF51F8043B62
:1051300040F8043BAFF30080D20724BF11F8013BD5
:1051400011F801CB48BF11F8012B24BF00F8013B37
:1051500000F801CB48BF00F8012B704702F0FF03B5
:1051600043EA032242EA024200F018B94FF0013C40
:1051700050F8042B51F8043B9A4221D1A2EB0C03C6
:10518000934313EACC1317D150F8042B51F8043B86
:105190009A4215D1A2EB0C03934313EACC130BD123
:1051A00050F8042B51F8043B9A4209D1A2EB0C03AE
:1051B000934313EACC13DBD04FF00000704700BFDD
:1051C000D01A01BAB1FA81F101F0180122FA01F006
:1051D000CB40C1F12001DBB2C0B2C01A2CFA01F3FE
:1051E000D11A914311EAC311E6D170477047704755
:1051F000704770472DE9F0470D46044692469946A0
:1052000000F124080168880604D5E06921F0100146
:10521000216000E001200027A84201DDA0EB050786
:10522000A16907EB050202EB0300A1EB0000A061FE
:105230002068C00602D42046AFF30080002608E0B4
:10524000D4E901211AF806009047206A401C761C18
:1052500020624E45F4DB2068C0060AD52046AFF335
:10526000008006E0D4E9012130209047206A401CEC
:105270002062381EA7F10107F4DC07E0D4E9012120
:1052800018F805009047206A401C2062281EA5F1EE
:105290000105F3DC2046AFF30080216802200906F7
:1052A00000D40120BDE8F08701694A1C026108783A
:1052B000704700B58FB0CDE9013100210591054956
:1052C0007944CDE9031011466846FFF727FE0FB079
:1052D00000BD0000E5FFFFFF0A6802F8010B0A604D
:1052E000704710B5436913B1AFF3008001E0FFF7D9
:1052F0004AFE012010BD126800F124010A7000224C
:105300004A700122EDE711684FF0FF32E9E7000033
:10531000074B70B50C467B44FFF7CBFF0546204694
:1053200000F064F810B14FF0FF3070BD284670BD3A
:1053300045BCFFFF10B5203AC0F00B80B1E8185013
:10534000203AA0E81850B1E81850A0E81850BFF46F
:10535000F5AF5FEA027C24BFB1E81850A0E818500E
:1053600044BF18C918C0BDE810405FEA827C24BF62
:1053700051F8043B40F8043B08BF7047D20728BFF0
:1053800031F8023B48BF11F8012B28BF20F8023B3F
:1053900048BF00F8012B70474FF000020429C0F00D
:1053A000128010F0030C00F02780CCF1040CBCF14B
:1053B000020F18BF00F8012BA8BF20F8022BA1EBA9
:1053C0000C0100F019B85FEAC17C24BF00F8012B82
:1053D00000F8012B48BF00F8012B70474FF00A017D
:1053E000B0FBF1F202FB110110467047C06800F0FB
:1053F000800070474FF0000200B513469446964671
:10540000203922BFA0E80C50A0E80C50B1F12001D7
:10541000BFF4F7AF090728BFA0E80C5048BF0CC085
:105420005DF804EB890028BF40F8042B08BF7047E3
:1054300048BF20F8022B11F0804F18BF00F8012B55
:105440007047754600F028F8AE4605006946534699
:1054500020F00700854618B020B5FBF72BFEBDE80D
:1054600020404FF000064FF000074FF000084FF0CB
:10547000000B21F00701AC46ACE8C009ACE8C0095C
:10548000ACE8C009ACE8C0098D4670470446AFF3EC
:1054900000802046FAF79DFE00487047C0A6002015
:1054A00001487047704700BFC4A6002010B5FFF741
:1054B000F7FF4FF00001016010BD00000000FFFF8A
:1054C000FFFFFFFFFFFFFFFF0402350000010000A8
:1054D000F054000800000020A40000006C01000847
:1054E00094550008A40000207CAC0000880100084E
:1054F0000000000000FF00000000000000000000AD
:1055000000000000000000000000000000A24A04AB
:105510000000000000000000010203040607080963
:10552000000000000000000000000000000000007B
:105530000000000000000000000000000102030461
:10554000010203040607080902040608000000001F
:10555000000000000000000000000000000000004B
:10556000000000000000000000000000000000003B
:10557000000000000000000000000000000000002B
:10558000000000000000000000000000000000001B
:045590000000000017
:0400000508000131BD
:00000001FF
